S0120000616C61726D436C6F636B2E7372656319
S11300000C9434000C9451000C9451000C94510045
S11300100C9451000C9451000C9451000C94510018
S11300200C9451000C9451000C9451000C94FB0559
S11300300C9451000C9451000C94FB020C9451004C
S11300400C9451000C9451000C9451000C945100E8
S11300500C9451000C9451000C9451000C945100D8
S11300600C9451000C94510011241FBECFEFD8E022
S1130070DEBFCDBF11E0A0E0B1E0E8E5FEE002C0E4
S113008005900D92A831B107D9F721E0A8E1B1E0BC
S113009001C01D92AD33B207E1F70E94FD040C9438
S11300A02A070C9400000E9414030E94EB030E9490
S11300B002050E9421030E94E202089580E00E944A
S11300C033038093370181E00E94330380933C0122
S11300D090913701923009F0C4C08230F1F58091DB
S11300E01801813009F00CC18091190190911A0115
S11300F00197893B2BE0920728F490931A0180938F
S11301001901089510921A0110921901089580910D
S1130110200190912101009739F48AE090E09093B6
S113012021018093200115C08530910509F4DFC0B9
S11301308A30910509F499C0449709F4B7C08091B5
S11301401D01813019F410921D0103C081E08093D8
S11301501D0180913701823051F4109221011092D7
S1130160200180913C01813009F0C7C00AC0809110
S11301703C018130B9F580912001909121010097D3
S113018069F485E090E0909321018093200188EE4A
S113019093E090931C0180931B0108958530910591
S11301A009F4AEC08A30910539F484E190E090936B
S11301B02101809320010895449739F48AE090E066
S11301C09093210180932001089581E090E0909321
S11301D01F0180931E018AE590E0909305018093AE
S11301E004010895823009F08BC080912001909120
S11301F02101009761F480ED97E090931A018093B8
S1130200190181E0809318010E94A10508958530A9
S1130210910509F475C08A30910539F484E190E0C0
S113022090932101809320010895449739F48AE042
S113023090E09093210180932001089581E090E063
S113024090931F0180931E018091040190910501F8
S11302508635910508F454C01092050110920401EA
S11302600895913009F083CF52CF84E690E09093C3
S11302702101809320010E94D105AC019C01369597
S1130280279536952795ABE7B4E10E9457069695D6
S113029087958093380164E6689F9001699F300DCB
S11302A01124421B530B40933A0153CF88EC90E046
S11302B090932101809320010E94C605AC019C010A
S11302C03695279536952795ABE7B4E10E945706F6
S11302D09695879580933B0164E6689F9001699F9A
S11302E0300D1124421B530B4093390132CF8091BE
S11302F03C01813009F076CF0895823009F47BCF38
S113030008950E9421050E944404809118018130BF
S1130310A1F48091190190911A01892B71F4109222
S113032018010E949D05449A2FEF8FEF99E5215003
S113033080409040E1F700C000008091200190913E
S113034021018A30910579F128F4009779F0059715
S1130350A9F033C18436910509F44AC0883C91055B
S113036009F4B9C0449709F028C131C087E00E945C
S113037041040E94C6050E9487041FC10E94D10542
S11303800E94870480911B0190911C01009729F41D
S1130390109221011092200110C1019790931C0129
S11303A080931B010AC183E00E94410463E08AE058
S11303B00E94F70462E08CE00E94F70461E08FE0A1
S11303C00E94F70460E08FE00E94F704F6C063E047
S11303D08BE00E94F70462E08CE00E94F70461E085
S11303E08FE00E94F70460E08FE00E94F704E5C00C
S11303F080911D01811136C081E00E9441048091E9
S11304001E0190911F01019711F510921F01109286
S11304101E0180910401909105018135910560F0E0
S11304208AE590E0909305018093040180913A015C
S11304308F5F80933A0105C00196909305018093E4
S1130440040180913A018C3310F010923A018091AA
S11304503A0190E00E94870460E080913A010E9492
S1130460BE05ABC082E00E94410480911E019091C0
S11304701F01019711F510921F0110921E01809126
S11304800401909105018135910560F08AE590E0C1
S11304909093050180930401809138018F5F8093CC
S11304A0380105C001969093050180930401809161
S11304B03801883110F0109238018091380124E617
S11304C0829FC00111240E94870461E08091380159
S11304D00E94BE0572C080911D01811136C081E069
S11304E00E94410480911E0190911F01019711F512
S11304F010921F0110921E01809104019091050138
S11305008135910560F08AE590E090930501809330
S11305100401809139018F5F8093390105C00196F0
S11305209093050180930401809139018C3310F07C
S1130530109239018091390190E00E94870460E0B3
S1130540809139010E94B40538C082E00E944104C0
S113055080911E0190911F01019711F510921F01C6
S113056010921E018091040190910501813591053D
S113057060F08AE590E090930501809304018091F6
S11305803B018F5F80933B0105C001969093050169
S11305908093040180913B01883110F010923B015B
S11305A080913B0124E6829FC00111240E948704AC
S11305B061E080913B010E94B4050E94E4030E9423
S11305C05E00089582E084BD9FEF97BD80936E0026
S11305D083E085BD089581E08093220108951092FF
S11305E0220186E69EE00197F1F700005F982A98C1
S11305F0089587BD08951F920F920FB60F9211248C
S11306008F9380912201813049F44F9B04C05F98FD
S11306102A982A9A03C02A985F985F9A8F910F901C
S11306200FBE0F901F9018958CE184B98BEF85B99C
S11306308FE387B980EC88B98FEF8AB98FE18BB9E2
S11306400895CF93DF930E94DC05C3E2D1E0998340
S113065088831A820E94DC059C838B831D8281E03F
S1130660DF91CF910895823078F490E0FC01EE0F91
S1130670FF1F8E0F9F1FFC01ED5DFE4F8281982F9F
S1130680907F92838F70089580E00895882319F0F5
S1130690813029F00BC083B180958170089583B1B6
S11306A081FB992790F981E08927089580E00895D6
S11306B0CF93DF93C82FD0E0FE01EE0FFF1FEC0FA6
S11306C0FD1FED5DFE4F9281907F9031D1F090340B
S11306D009F457C091116DC00E944603882309F4A0
S11306E070C00E94DC059E01220F331FC20FD31F6E
S11306F0CD5DDE4F998388838A818F7080618A8380
S113070060C00E9446038823C9F0FE01EE0FFF1F5C
S1130710EC0FFD1FED5DFE4F808191810E94EA0583
S1130720853F914008F44DC0CE01880F991FC80F32
S1130730D91FCD5DDE4F82E48A8343C0FE01EE0FF4
S1130740FF1FEC0FFD1FED5DFE4F808191810E9424
S1130750EA05CD9758F0FE01EE0FFF1FEC0FFD1FC9
S1130760ED5DFE4F8281807F81608283CE01880FA0
S1130770991FC80FD91FCD5DDE4F8A818F708A8380
S113078020C00E94460381110AC0CE01880F991F20
S1130790C80FD91FCD5DDE4F83E08A8312C0CE011E
S11307A0880F991FC80FD91FCD5DDE4F82E48A835D
S11307B008C0CE01880F991FC80FD91FCD5DDE4F29
S11307C01A82DF91CF91089580E00E94580381E05E
S11307D00E9458030895589A599A5A9A5B9A5C9AB7
S11307E02B9A2C9A409A419A429A439A4498459853
S11307F05F982A98089590E0FC01E95FFE4F2081FC
S113080020FF02C0589801C0589AFC01E95FFE4FCE
S1130810208121FF02C0599801C0599AFC01E95F67
S1130820FE4F208122FF02C05A9801C05A9AFC014F
S1130830E95FFE4F208123FF02C05B9801C05B9AF1
S1130840FC01E95FFE4F208124FF02C05C9801C0D7
S11308505C9AFC01E95FFE4F208125FF02C02B98C2
S113086001C02B9AFC01E95FFE4F808186FF02C024
S11308702C9808952C9A08958091060182FD449A3B
S11308800895809306010895809129010E94FB0335
S11308908091060180FD40988BE491E00197F1F787
S11308A000C00000409A80912A010E94FB038091BD
S11308B0060180FD41988BE491E00197F1F700C0B7
S11308C00000419A80912B010E94FB038091060154
S11308D081FD42988BE491E00197F1F700C000009C
S11308E0429A80912C010E94FB038091060181FDB4
S11308F043988BE491E00197F1F700C00000439A1C
S113090085EF9CE00197F1F700C000000895CF93B4
S1130910DF93EC01E9E2F1E09C01ADECBCEC0E9458
S11309205706AC0156954795569547955695479564
S1130930CA01880F991F440F551F440F551F440FB8
S1130940551F480F591FCE01841B950B80830E94AD
S11309505706EC01D695C795D695C795D695C795F4
S11309609E010E945706AC015695479556954795AA
S113097056954795CA01880F991F440F551F440F78
S1130980551F440F551F480F591FCE01841B950B4B
S113099081830E945706EC01D695C795D695C795D5
S11309A0D695C7959E010E945706AC01569547956A
S11309B05695479556954795CA01880F991F440F38
S11309C0551F440F551F440F551F480F591FCE0183
S11309D0841B950B82830E9457069695879596955E
S11309E08795969587958383DF91CF910895E62F18
S11309F0F0E0E75DFE4F808308950E9453000E945B
S1130A008101FDCFEFE6F0E080818D7F808310923D
S1130A10300110922F01A8E8B0E08D919C911197BC
S1130A208756964C11969C938E9310928000A1E861
S1130A30B0E08C9181608C93789480818260808313
S1130A40089540912D0150912E019A01A5E5B2E53A
S1130A500E9457060024880F991F001C880F991FB5
S1130A60001C892F902D67EC689F9001699F300DC1
S1130A7011244217530779F480912F01909130018A
S1130A800E94CB060E94C60666E970E00E944306F7
S1130A90855E0E94F90280912D0190912E01843F80
S1130AA0914008F0449880912D0190912E01883E48
S1130AB0934058F00E943C0410922E0110922D0194
S1130AC0809136018F5F80933601809136018C339B
S1130AD038F010923601809135018F5F8093350193
S1130AE0809135018C3338F01092350180913401B6
S1130AF08F5F8093340180913401883128F0109203
S1130B00340181E080931701809131018130A1F497
S1130B109091340180913301981770F090913501D0
S1130B2080913201981740F080911701813021F4AF
S1130B300E94EB021092310108950E94EF02459841
S1130B40089581E0809331019091340180913301C3
S1130B50981740F09091350180913201981710F068
S1130B6010921701459A089510923601611103C03D
S1130B70809335010895809334010895611103C071
S1130B8080933201089580933301089520913401B4
S1130B908091350190E034E6239F800D911D11244E
S1130BA00895209133018091320190E034E6239F2F
S1130BB0800D911D11240895EFE6F0E080818D7F72
S1130BC0808320912F013091300190819260908335
S1130BD0C9010895EFE6F0E020812D7F2083409144
S1130BE02F01509130012081226020839A01281B1B
S1130BF0390BC90108951F920F920FB60F92112459
S1130C002F933F938F939F93EF93FF93809184004F
S1130C10909185002091880030918900821B930B6C
S1130C208C3C9C4148F4E8E8F0E08081918187564F
S1130C30964C918380830AC08091840090918500B2
S1130C408756964C909389008093880080912F0159
S1130C509091300101969093300180932F018091FF
S1130C602D0190912E01019690932E0180932D01D8
S1130C70FF91EF919F918F913F912F910F900FBE14
S1130C800F901F90189597FB072E16F4009407D029
S1130C9077FD09D00E94660607FC05D03EF49095C6
S1130CA081959F4F0895709561957F4F0895A29FF8
S1130CB0B001B39FC001A39F700D811D1124911D2C
S1130CC0B29F700D811D1124911D0895AA1BBB1B99
S1130CD051E107C0AA1FBB1FA617B70710F0A61B38
S1130CE0B70B881F991F5A95A9F780959095BC0159
S1130CF0CD0108958F929F92AF92BF92CF92DF92CF
S1130D00EF92FF92CF93DF93EC01688179818A811E
S1130D109B81611571058105910521F464E279EDEA
S1130D208BE597E02DE133EF41E050E00E94D606D9
S1130D3049015A019B01AC01A7EAB1E40E94F506FE
S1130D406B017C01ACEEB4EFA50194010E94030792
S1130D50DC01CB018C0D9D1DAE1DBF1DB7FF03C073
S1130D600197A109B04888839983AA83BB839F779D
S1130D70DF91CF91FF90EF90DF90CF90BF90AF9035
S1130D809F908F9008950E947A06089580E091E0E4
S1130D900E947A060895A0E0B0E080930001909349
S1130DA00101A0930201B09303010895052E97FB5E
S1130DB01EF400940E94ED0657FD07D00E94080718
S1130DC007FC03D04EF40C94ED06509540953095F5
S1130DD021953F4F4F4F5F4F0895909580957095A3
S1130DE061957F4F8F4F9F4F08950E945706A59F8F
S1130DF0900DB49F900DA49F800D911D1124089512
S1130E00B7FF0C94F5060E94F506821B930B089518
S1130E10A1E21A2EAA1BBB1BFD010DC0AA1FBB1FFA
S1130E20EE1FFF1FA217B307E407F50720F0A21B6C
S1130E30B30BE40BF50B661F771F881F991F1A94D9
S1130E4069F760957095809590959B01AC01BD0103
S10B0E50CF010895F894FFCFCF
S1130E58010000005A00077E186B5B1D57771A7F44
S10B0E685F3F6664652400018C
S9030000FC
