S0120000616C61726D436C6F636B2E7372656319
S11300000C9434000C9451000C9451000C94510045
S11300100C9451000C9451000C9451000C94510018
S11300200C9451000C9451000C9451000C94C00396
S11300300C9451000C9451000C9451000C945100F8
S11300400C9451000C9451000C9451000C945100E8
S11300500C9451000C9451000C9451000C945100D8
S11300600C9451000C94510011241FBECFEFD8E022
S1130070DEBFCDBF11E0A0E0B1E0E2E3F8E002C0F2
S113008005900D92A231B107D9F721E0A2E1B1E0C8
S113009001C01D92AD32B207E1F70E9431030C9406
S11300A017040C9400000E9459010E942F020E9420
S11300B036030E946501089580E00E947E018093CA
S11300C0290181E00E947E0180932C0190912901F5
S11300D0923009F06DC08230B9F408959091140102
S11300E09F5F933018F49093140116C092E090939C
S11300F01401909113019F5F923018F490931301AF
S11301000BC01092130108C0109214011092130135
S1130110813009F053C002C0813051F5809114013F
S1130120813049F4809112018F5F833008F444C018
S1130130109212010895823009F040C08091130199
S1130140813059F480912B018F5F883118F48093AA
S11301502B01089510922B01089580912A018F5F3D
S11301608C3318F480932A01089510922A0108957B
S1130170823021F580911401823001F580911301C0
S1130180813059F480912B018B5F883118F480936E
S11301902B01089510922B01089580912A018B5F01
S11301A08C3318F480932A01089510922A0108953B
S11301B0913009F0B1CF92CF8093120108950E943B
S11301C055030E94860280911401813069F020F069
S11301D0823009F447C068C087E00E9483020E940D
S11301E096030E94BB0260C083E00E948302809158
S11301F012018130A9F018F0823019F155C063E082
S11302008AE00E942B0362E08CE00E942B0361E0F1
S11302108FE00E942B0360E08FE00E942B0344C018
S113022063E08DE00E942B0362E08EE00E942B03CA
S113023061E08FE00E942B0360E08FE00E942B03BB
S113024033C063E08BE00E942B0362E08CE00E94E9
S11302502B0361E08FE00E942B0360E08FE00E949B
S11302602B0322C08091130181110EC081E00E94F2
S1130270830280912A0190E00E94BB0260E0809199
S11302802A010E948C0310C082E00E9483028091A4
S11302902B0124E6829FC00111240E94BB0261E06D
S11302A080912B010E948C030E9425020E945C0015
S11302B0089588E184B98FEF85B99FE397B990ECED
S11302C098B98AB98FE98BB908950F931F93CF9387
S11302D0DF93C7E1D1E000E211E00E94A103FE0137
S11302E032979183808318822396C017D107A9F788
S11302F081E0DF91CF911F910F910895833078F4BD
S113030090E0FC01EE0FFF1F8E0F9F1FFC01EB5EC0
S1130310FE4F8281982F907F92838F70089580E0A2
S11303200895882319F0813029F00BC083B180959A
S11303308170089583B181FB992790F981E0892721
S1130340089580E00895CF93DF93C82FD0E0FE0195
S1130350EE0FFF1FEC0FFD1FEB5EFE4F9281907FAF
S11303609031D1F0903409F457C0911163C00E94C8
S11303709101882309F466C00E94A1039E01220F03
S1130380331FC20FD31FCB5EDE4F998388838A81CC
S11303908F7080618A8356C00E9491018823C9F0BE
S11303A0FE01EE0FFF1FEC0FFD1FEB5EFE4F808181
S11303B091810E94AF03893E934008F443C0CE016B
S11303C0880F991FC80FD91FCB5EDE4F82E48A8342
S11303D039C0FE01EE0FFF1FEC0FFD1FEB5EFE4F59
S11303E0808191810E94AF03CD9758F0FE01EE0FFA
S11303F0FF1FEC0FFD1FEB5EFE4F8281807F81604B
S11304008283CE01880F991FC80FD91FCB5EDE4FA0
S11304108A818F708A8316C00E949101811112C053
S1130420CE01880F991FC80FD91FCB5EDE4F83E022
S11304308A8308C0CE01880F991FC80FD91FCB5ECD
S1130440DE4F1A82DF91CF91089580E00E94A301CC
S113045081E00E94A30182E00E94A3010895589ABA
S1130460599A5A9A5B9A5C9A2B9A2C9A409A419A76
S1130470429A439A449A459A089590E0FC01EF5FAA
S1130480FE4F208120FF02C0589801C0589AFC01F9
S1130490EF5FFE4F208121FF02C0599801C0599A95
S11304A0FC01EF5FFE4F208122FF02C05A9801C079
S11304B05A9AFC01EF5FFE4F208123FF02C05B9834
S11304C001C05B9AFC01EF5FFE4F208124FF02C054
S11304D05C9801C05C9AFC01EF5FFE4F208125FF10
S11304E002C02B9801C02B9AFC01EF5FFE4F808164
S11304F086FF02C02C9808952C9A089580910001DB
S113050082FD44980895809300010895439A809150
S11305101E010E943D028091000180FD409883E30A
S113052097E00197F1F7409A80911F010E943D02E4
S11305308091000180FD419883E397E00197F1F7F2
S1130540419A809120010E943D028091000181FD29
S1130550429883E397E00197F1F7429A8091210151
S11305600E943D028091000181FD439883E397E05E
S11305700197F1F70895CF93DF93EC01EEE1F1E0F9
S11305809C01ADECBCEC0E940804AC015695479567
S11305905695479556954795CA01880F991F440F5C
S11305A0551F440F551F440F551F480F591FCE01A7
S11305B0841B950B80830E940804EC01D695C79593
S11305C0D695C795D695C7959E010E940804AC019F
S11305D0569547955695479556954795CA01880F60
S11305E0991F440F551F440F551F440F551F480FA3
S11305F0591FCE01841B950B81830E940804EC01D2
S1130600D695C795D695C795D695C7959E010E9450
S11306100804AC01569547955695479556954795C8
S1130620CA01880F991F440F551F440F551F440FCB
S1130630551F480F591FCE01841B950B82830E94BE
S113064008049695879596958795969587958383BF
S1130650DF91CF910895E62FF0E0E25EFE4F8083B4
S113066008950E9453000E94DF00FDCFEFE6F0E002
S113067080818D7F80831092250110922401A8E847
S1130680B0E08D919C9111978756964C11969C934E
S11306908E9310928000A1E8B0E08C9181608C93DD
S11306A07894808182608083089580912201909162
S11306B02301843F914008F0449A80912201909153
S11306C02301883E934058F00E947E021092230139
S11306D010922201809128018F5F809328018091DC
S11306E028018D3338F010922801809127018F5F03
S11306F080932701809127018D3338F010922701D0
S1130700809126018F5F8093260180912601883194
S113071010F010922601089510922801611103C06F
S1130720809327010895809326010895209126013E
S11307308091270190E034E6239F800D911D1124C0
S11307400895EFE6F0E080818D7F8083209124017D
S113075030912501908192609083C9010895EFE65C
S1130760F0E020812D7F20834091240150912501C8
S11307702081226020839A01281B390BC901089526
S11307801F920F920FB60F9211242F933F938F93C2
S11307909F93EF93FF938091840090918500209123
S11307A0880030918900821B930B8C3C9C4148F457
S11307B0E8E8F0E0808191818756964C91838083AC
S11307C00AC080918400909185008756964C90933E
S11307D089008093880080912401909125010196DD
S11307E0909325018093240180912201909123010B
S11307F001969093230180932201FF91EF919F91A1
S11308008F913F912F910F900FBE0F901F901895CD
S1130810A29FB001B39FC001A39F700D811D11243D
S1130820911DB29F700D811D1124911D0895F8949E
S1050830FFCFF4
S1130832077E186B5B1D57771A7F5F3F66646524DA
S10508420000B0
S9030000FC
