:100000000C9434000C9451000C9451000C94510049
:100010000C9451000C9451000C9451000C9451001C
:100020000C9451000C9451000C9451000C94500409
:100030000C9451000C9451000C9451000C945100FC
:100040000C9451000C9451000C9451000C945100EC
:100050000C9451000C9451000C9451000C945100DC
:100060000C9451000C94510011241FBECFEFD8E026
:10007000DEBFCDBF11E0A0E0B1E0E2E5F9E002C0F3
:1000800005900D92A431B107D9F721E0A4E1B1E0C8
:1000900001C01D92AE32B207E1F70E94C1030C9479
:1000A000A7040C9400000E94DA010E94B0020E9492
:1000B000C6030E94E601089580E00E94F801809343
:1000C0002A0181E00E94F80180932D0190912A017C
:1000D000923009F088C0823019F508958091170197
:1000E00090911801009739F48AE090E090931801FC
:1000F0008093170111C08A30910509F478C04497A4
:1001000009F47CC080911401813019F4109214011B
:1001100003C081E08093140180912A01823049F468
:10012000109218011092170180912D01813061F514
:10013000089580912D01813039F5809117019091BA
:100140001801009709F47BC08A30910539F484E1E5
:1001500090E090931801809317010895449739F423
:100160008AE090E09093180180931701089581E050
:1001700090E090931601809315018AE590E09093AA
:100180000101809300010895823009F058C08091E8
:10019000170190911801009709F451C08A30910518
:1001A00039F484E190E09093180180931701089549
:1001B000449739F48AE090E09093180180931701F6
:1001C000089581E090E0909316018093150180914D
:1001D0000001909101018635910588F1109201018D
:1001E000109200010895913009F0A3CF77CF84E6F3
:1001F00090E090931801809317018ECF88EC90E0E7
:1002000090931801809317010E942604AC019C0171
:100210003695279536952795ABE7B4E10E9498046B
:100220009695879580932C0164E6689F9001699F5D
:10023000300D1124421B530B40932B016DCF0895B9
:100240000E94E5030E940803809117019091180114
:100250008A30910599F018F4892B41F0A6C08431B9
:10026000910501F1883C910571F19FC087E00E94E2
:1002700005030E9426040E944B0397C083E00E945E
:10028000050363E08AE00E94BB0362E08CE00E9409
:10029000BB0361E08FE00E94BB0360E08FE00E943F
:1002A000BB0383C063E08BE00E94BB0362E08CE091
:1002B0000E94BB0361E08FE00E94BB0360E08FE01F
:1002C0000E94BB0372C080911401811136C081E08D
:1002D0000E9405038091150190911601019711F577
:1002E0001092160110921501809100019091010168
:1002F0008135910560F08AE590E09093010180934B
:10030000000180912B018F5F80932B0105C0019626
:10031000909301018093000180912B018C3310F0A8
:1003200010922B0180912B0190E00E944B0360E022
:1003300080912B010E941C0438C082E00E940503BA
:100340008091150190911601019711F510921601F7
:100350001092150180910001909101018135910564
:1003600060F08AE590E09093010180930001809114
:100370002C018F5F80932C0105C0019690930101A1
:100380008093000180912C01883110F010922C0193
:1003900080912C0124E6829FC00111240E944B030E
:1003A00061E080912C010E941C040E94A9020E941D
:1003B0005C00089588E184B98FEF85B99FE397B910
:1003C00090EC98B98AB98FE98BB90895CF93DF93F0
:1003D0000E943104C9E1D1E0998388831A820E9486
:1003E00031049C838B831D8281E0DF91CF9108953E
:1003F000823078F490E0FC01EE0FFF1F8E0F9F1FFC
:10040000FC01E75EFE4F8281982F907F92838F7070
:10041000089580E00895882319F0813029F00BC0F9
:1004200083B180958170089583B181FB992790F9FC
:1004300081E08927089580E00895CF93DF93C82F46
:10044000D0E0FE01EE0FFF1FEC0FFD1FE75EFE4F39
:100450009281907F9031D1F0903409F457C091117E
:100460006DC00E940B02882309F470C00E94310401
:100470009E01220F331FC20FD31FC75EDE4F998329
:1004800088838A818F7080618A8360C00E940B029A
:100490008823C9F0FE01EE0FFF1FEC0FFD1FE75E82
:1004A000FE4F808191810E943F04853F914008F476
:1004B0004DC0CE01880F991FC80FD91FC75EDE4FF0
:1004C00082E48A8343C0FE01EE0FFF1FEC0FFD1F85
:1004D000E75EFE4F808191810E943F04CD9758F0E6
:1004E000FE01EE0FFF1FEC0FFD1FE75EFE4F828146
:1004F000807F81608283CE01880F991FC80FD91F2A
:10050000C75EDE4F8A818F708A8320C00E940B02F3
:1005100081110AC0CE01880F991FC80FD91FC75E6D
:10052000DE4F83E08A8312C0CE01880F991FC80F67
:10053000D91FC75EDE4F82E48A8308C0CE01880FD0
:10054000991FC80FD91FC75EDE4F1A82DF91CF9166
:10055000089580E00E941D0281E00E941D0208951E
:10056000589A599A5A9A5B9A5C9A2B9A2C9A409A62
:10057000419A429A439A449A459A5F98089590E026
:10058000FC01ED5FFE4F208120FF02C0589801C0A2
:10059000589AFC01ED5FFE4F208121FF02C059985F
:1005A00001C0599AFC01ED5FFE4F208122FF02C07D
:1005B0005A9801C05A9AFC01ED5FFE4F208123FF3B
:1005C00002C05B9801C05B9AFC01ED5FFE4F208189
:1005D00024FF02C05C9801C05C9AFC01ED5FFE4FF5
:1005E000208125FF02C02B9801C02B9AFC01ED5FF2
:1005F000FE4F808186FF02C02C9808952C9A0895A2
:100600008091020182FD449A089580930201089529
:1006100080911F010E94BF028091020180FD4098DD
:100620008BE491E00197F1F700C00000409A8091BF
:1006300020010E94BF028091020180FD41988BE45D
:1006400091E00197F1F700C00000419A80912101EB
:100650000E94BF028091020181FD42988BE491E0EB
:100660000197F1F700C00000429A809122010E9498
:10067000BF028091020181FD43988BE491E00197D4
:10068000F1F700C00000439A85EF9CE00197F1F775
:1006900000C000000895CF93DF93EC01EFE1F1E09B
:1006A0009C01ADECBCEC0E949804AC0156954795BA
:1006B0005695479556954795CA01880F991F440F3F
:1006C000551F440F551F440F551F480F591FCE018A
:1006D000841B950B80830E949804EC01D695C795E6
:1006E000D695C795D695C7959E010E949804AC01F2
:1006F000569547955695479556954795CA01880F43
:10070000991F440F551F440F551F440F551F480F85
:10071000591FCE01841B950B81830E949804EC0124
:10072000D695C795D695C795D695C7959E010E9433
:100730009804AC015695479556954795569547951B
:10074000CA01880F991F440F551F440F551F440FAE
:10075000551F480F591FCE01841B950B82830E94A1
:100760009804969587959695879596958795838312
:10077000DF91CF910895E62FF0E0E15EFE4F808398
:1007800008950E9453000E942001FDCFEFE6F0E0A3
:1007900080818D7F80831092260110922501A8E828
:1007A000B0E08D919C9111978756964C11969C9331
:1007B0008E9310928000A1E8B0E08C9181608C93C0
:1007C0007894808182608083089580912301909144
:1007D0002401843F914008F0449880912301909136
:1007E0002401883E934058F00E9400031092240197
:1007F00010922301809129018F5F809329018091BC
:1008000029018C3338F010922901809128018F5FE3
:1008100080932801809128018C3338F010922801B0
:10082000809127018F5F8093270180912701883174
:1008300010F010922701089510922901611103C050
:10084000809328010895809327010895209127011E
:100850008091280190E034E6239F800D911D1124A2
:100860000895EFE6F0E080818D7F8083209125015F
:1008700030912601908192609083C9010895EFE63E
:10088000F0E020812D7F20834091250150912601A9
:100890002081226020839A01281B390BC901089509
:1008A0001F920F920FB60F9211242F933F938F93A5
:1008B0009F93EF93FF938091840090918500209106
:1008C000880030918900821B930B8C3C9C4148F43A
:1008D000E8E8F0E0808191818756964C918380838F
:1008E0000AC080918400909185008756964C909321
:1008F00089008093880080912501909126010196BE
:1009000090932601809325018091230190912401E9
:1009100001969093240180932301FF91EF919F9181
:100920008F913F912F910F900FBE0F901F901895B0
:10093000A29FB001B39FC001A39F700D811D112420
:10094000911DB29F700D811D1124911D0895F89481
:02095000FFCFD7
:100952005A00077E186B5B1D57771A7F5F3F6664EC
:040962006524000008
:00000001FF
